:060000000A128A110C280F
:10000800FE00030EF0000A08F1000A128A153A2CC5
:100018000A128A110F2883136830FD000B30FE0086
:10002800C830FF00593084000A128A15FC230A12CE
:100038008A110A128A11FA270A128A11FB00203043
:1000480084003E300A128A15A8230A128A118301F5
:100058000A128A11E52D83120313C80002304806DC
:10006800031D372838284728600803193C283D28ED
:100078003F28E00147285F08031943284528013035
:1000880046280030DF0023304806031D4C284D2841
:1000980067283708031D5128522861280130B90004
:1000A8000A128A15E7230A128A11831203131211FE
:1000B800BB0112150130B70067283703031D6528F7
:1000C8006628672852284803031D6B286C289C283B
:1000D80061080319702871287328E1019C285F08BA
:1000E8000319772878288A280130A8070318A90A4D
:1000F8000030A907003029023C3003192802031CEC
:10010800862887289C28A801A9019C280130A607D1
:100118000318A70A0030A707003027023C3003194C
:100128002602031C982899289C28A601A7019C2828
:100138002A304806031DA128A228AC285F08031905
:10014800A628A728AA28A801A901AC28A601A701C2
:1001580039080319B028B1282D2A06304806031D8E
:10016800B628B728D82803304306031DBC28BD2865
:10017800C2280930C3000030C400942B0430430661
:10018800031DC728C828CD281130C3000030C4007B
:10019800942B05304306031DD228D328D8281230C3
:1001A800C3000030C400942B05304806031DDD2829
:1001B800DE28E2280130B800071112110430480681
:1001C800031DE728E8280B293808031DEC28ED282B
:1001D80008291E30A8070318A90A0030A90700300B
:1001E80029023C3003192802031CFB28FC28082993
:1001F8003C30A8020030031CA903A9020130A6075D
:100208000318A70A0030A707B80112150715380800
:10021800031D0F291029872902303B06031D1529C4
:10022800162987290715BB012808290403191D2940
:100238001E2925290130A8020030031CA903A902A0
:1002480035292608270403192A292B2935293B3063
:10025800A8000030A9000130A6020030031CA70343
:10026800A70226082704031D3A293B2987292808BD
:100278002904031D4029412987290A128A15E723E1
:100288000A128A119D30F6008030F700C430F80059
:100298000A128A15AB240A128A112330F60080301C
:1002A800F7009130F8000A128A15AB240A128A1155
:1002B80083120313071187147F3083120313C700B7
:1002C800D430C6003130C500C50B6829C60B682973
:1002D800C70B6829831203138710B901033043063B
:1002E800031D772978297929BD2804304306031D81
:1002F8007E297F298029C82805304306031D8529C2
:1003080086298729D328D130F6008030F70080303D
:10031800F8000A128A15AB240A128A118630FA00EC
:100328000A30F2000030F300831203132708F500A7
:100338002608F4000A128A154F250A128A11720833
:10034800303E0A128A150B240A128A118730FA00E5
:100358000A3083120313BE000030BF002708C10013
:100368002608C0000A128A15DA240A128A11831292
:1003780003133E08303E0A128A150B240A128A110A
:100388008830FA003A300A128A150B240A128A11A8
:100398008930FA000A30F2000030F30083120313A8
:1003A8002908F5002808F4000A128A154F250A12B0
:1003B8008A117208303E0A128A150B240A128A1111
:1003C8008A30FA000A3083120313BE000030BF00DF
:1003D8002908C1002808C0000A128A15DA240A125E
:1003E8008A11831203133E08303E0A128A150B2421
:1003F8000A128A113330F6008030F700C030F80056
:100408000A128A15AB240A128A119530F600803038
:10041800F7009030F8000A128A15AB240A128A11E4
:10042800C430F6008030F700D030F8000A128A1580
:10043800AB240A128A11033083120313C7008A30CF
:10044800C6005530C500C50B272AC60B272AC70B7F
:10045800272A831203133908031D332A342A942BBD
:100468000130F6008030F7008030F8000A128A1553
:10047800AB240A128A11D130F6008030F700C03060
:10048800F8000A128A15AB240A128A11C530FA003C
:1004980020300A128A150B240A128A11C630FA0073
:1004A8000A30F2000030F300831203132708F50026
:1004B8002608F4000A128A154F250A128A117208B2
:1004C800303E0A128A150B240A128A11C730FA0024
:1004D8000A3083120313BE000030BF002708C10092
:1004E8002608C0000A128A15DA240A128A11831211
:1004F80003133E08303E0A128A150B240A128A1189
:10050800C830FA003A300A128A150B240A128A11E6
:10051800C930FA000A30F2000030F30083120313E6
:100528002908F5002808F4000A128A154F250A122E
:100538008A117208303E0A128A150B240A128A118F
:10054800CA30FA000A3083120313BE000030BF001D
:100558002908C1002808C0000A128A15DA240A12DC
:100568008A11831203133E08303E0A128A150B249F
:100578000A128A11CB30F6008030F700CB30F80031
:100588000A128A15AB240A128A11831203135F0810
:100598000319CF2AD02A2A2B023024062504031D4A
:1005A800D62AD72A072BC930FA000A30F2000030C1
:1005B800F3002908F5002808F4000A128A154F25C7
:1005C8000A128A117208303E0A128A150B240A127E
:1005D8008A11CA30FA000A3083120313BE000030B1
:1005E800BF002908C1002808C0000A128A15DA24A9
:1005F8000A128A11831203133E08303E0A128A1522
:100608000B240A128A1105308312031324062504C9
:10061800031D0F2B102B222BA401A501C930FA00B2
:1006280020300A128A150B240A128A11CA30FA00DD
:1006380020300A128A150B240A128A1101308312FB
:100648000313A4070318A50A0030A5075F08031DB4
:100658002E2B2F2B892B023022062304031D352B2A
:10066800362B662BC630FA000A30F2000030F30051
:100678002708F5002608F4000A128A154F250A12E1
:100688008A117208303E0A128A150B240A128A113E
:10069800C730FA000A3083120313BE000030BF00CF
:1006A8002708C1002608C0000A128A15DA240A128F
:1006B8008A11831203133E08303E0A128A150B244E
:1006C8000A128A1105308312031322062304031D1C
:1006D8006E2B6F2B812BA201A301C630FA002030AC
:1006E8000A128A150B240A128A11C730FA00203020
:1006F8000A128A150B240A128A1101308312031375
:10070800A2070318A30A0030A3071230F6008030AE
:10071800F700D030F8000A128A15AB240A128A11A1
:10072800080083120313CF0002304F06031D9D2BD0
:100738009E2BAF2B0130B2070318B30A0030B30762
:1007480000303302033003193202031CAC2BAD2BEB
:10075800AF2BB201B3014F03031DB32BB42BE52B11
:1007680032083304031DB92BBA2BC42B0130E70719
:10077800093067020318C12BC22BC42B3030E700A5
:1007880032033304031DC92BCA2BD42B0130E607CF
:10079800093066020318D12BD22BD42B3030E60057
:1007A800023032063304031DDA2BDB2BE52B013034
:1007B800E507093065020318E22BE32BE52B3030FF
:1007C800E50014306206031DEA2BEB2BC02D300820
:1007D8003104031DF02BF12B1F2D8330F6008030E0
:1007E800F7008030F8000A128A15AB240A128A1121
:1007F800D730F6008030F7008A30F8000A128A15E0
:10080800AB240A128A118B30FA00DF300A128A15DB
:100818000B240A128A118C30FA0043300A128A1506
:100828000B240A128A11D930F6008030F7008D3077
:10083800F8000A128A15AB240A128A11BD30F60094
:100848008030F700C030F8000A128A15AB240A126B
:100858008A116530F6000030F700C630F8000A1239
:100868008A15AB240A128A1183120313320833043F
:10087800031D3F2C402C6A2C02302E062F04031D2A
:10088800462C472C4F2CC830FA0067080A128A15E4
:100898000B240A128A110530831203132E062F0423
:1008A800031D572C582C622CAE01AF01C830FA003A
:1008B80020300A128A150B240A128A110130831279
:1008C8000313AE070318AF0A0030AF07320333042F
:1008D800031D6F2C702C9A2C02302C062D04031D3E
:1008E800762C772C7F2CC730FA0066080A128A15F6
:1008F8000B240A128A110530831203132C062D04C7
:10090800031D872C882C922CAC01AD01C730FA004E
:1009180020300A128A150B240A128A110130831218
:100928000313AC070318AD0A0030AD0702303206D6
:100938003304031DA02CA12CCB2C02302A062B0437
:10094800031DA72CA82CB02CC630FA0065080A1283
:100958008A150B240A128A110530831203132A06FA
:100968002B04031DB82CB92CC32CAA01AB01C6302B
:10097800FA0020300A128A150B240A128A11013053
:1009880083120313AA070318AB0A0030AB0712300F
:10099800F6008030F700D030F8000A128A15AB2430
:1009A8000A128A112A30831203134F06031DDD2C05
:1009B800DE2CFB2CCD01CE01831203134D08653EBE
:1009C80084003030831380000130CD070318CE0A2D
:1009D8000030CE074E08803AFF0080307F02031DAA
:1009E800F72C03304D02031CFA2CFB2CE02C23308F
:1009F800831203134F06031D022D032D1F2D3A08E2
:100A0800031D072D082D192D0130B0000030B1004D
:100A18000A128A15E7230A128A1183120313121184
:100A2800BB0112150130BA001F2D3A03031D1D2DFD
:100A38001E2D1F2D082D30033104031D242D252DB7
:100A4800C02D02303B06031D2A2D2B2D472D0715DF
:100A5800BB015B085C040319322D332D392D01309D
:100A6800DB020030031CDC03DC025B085C04031DB2
:100A78003E2D3F2D472D1530E2001211071102308F
:100A8800B0000030B1007730F6008030F7008030D9
:100A9800F8000A128A15AB240A128A116B30F60084
:100AA8008030F700C030F8000A128A15AB240A1209
:100AB8008A11CC30FA006430F2000030F30083125F
:100AC80003135C08F5005B08F4000A128A154F2529
:100AD8000A128A117208303E0A128A150B240A1269
:100AE8008A11CD30FA000A3083120313BE00003099
:100AF800BF000A30F2000030F3005C08F5005B0824
:100B0800F4000A128A154F250A128A1173088312F3
:100B18000313C1007208C0000A128A15DA240A12E7
:100B28008A11831203133E08303E0A128A150B24D9
:100B38000A128A11CE30FA000A3083120313BE005B
:100B48000030BF005C08C1005B08C0000A128A15AB
:100B5800DA240A128A11831203133E08303E0A125D
:100B68008A150B240A128A11CF30FA0073300A1240
:100B78008A150B240A128A110230831203133006D5
:100B88003104031DC82DC92DE42D0530C3004F08BD
:100B98000A128A112F200A128A118312031343089A
:100BA800BD0012303D06031DDA2DDB2DDD2DB00111
:100BB800B1013D08CB00CC014B08C9004C08CA0064
:100BC8000800013083120313D8000A128A15202462
:100BD8000A128A1101300A128A155B240A128A1134
:100BE80083120313D7005703031DFB2DFC2D172E6B
:100BF800043058060319012E022E172E0530580608
:100C08000319072E082E172E0630580603190D2E25
:100C18000E2E172E0A128A15E7230A128A1103309C
:100C280083120313D80002305706031D1C2E1D2EF5
:100C3800382E033058060319222E232E382E05305D
:100C480058060319282E292E382E0630580603195F
:100C58002E2E2F2E382E0A128A15E7230A128A11F1
:100C6800043083120313D80003305706031D3D2EAA
:100C78003E2E592E033058060319432E442E592E62
:100C8800043058060319492E4A2E592E06305806A4
:100C980003194F2E502E592E0A128A15E7230A12CD
:100CA8008A11053083120313D80004305706031D38
:100CB8005E2E5F2E902F033058060319642E652E82
:100CC800902F0530580603196A2E6B2E902F04308A
:100CD80058060319702E712E902F0A128A15E723D1
:100CE8000A128A11063083120313D800902FD301F9
:100CF800D401831203135308803EFA00FF300A120E
:100D08008A150B240A128A11033083120313D200A6
:100D18008A30D1005530D000D00B902ED10B902EB8
:100D2800D20B902E013083120313D3070318D40A71
:100D38000030D4075408803AFF0080307F02031D3A
:100D4800A72E10305302031CAA2EAB2E7D2E8C30FA
:100D5800F6008030F700C030F8000A128A15AB247C
:100D68000A128A114230F6008030F7009030F800FD
:100D78000A128A15AB240A128A1183120313D501A9
:100D8800D601831203135508D03EFA00FF300A1229
:100D98008A150B240A128A11033083120313D20016
:100DA8008A30D1005530D000D00BD82ED10BD82E98
:100DB800D20BD82E013083120313D5070318D60A95
:100DC8000030D6075608803AFF0080307F02031DA6
:100DD800EF2E10305502031CF22EF32EC52E7F3055
:100DE80083120313D200D430D1003130D000D00B9D
:100DF800FB2ED10BFB2ED20BFB2E0A128A15E723F2
:100E08000A128A11023083120313D800EE2D3C080F
:100E1800031D0F2F102FEE2DAD30F6008030F70098
:100E28008030F8000A128A15AB240A128A11A530FC
:100E3800F6008030F700C030F8000A128A15AB249B
:100E48000A128A115E30F6008030F7009030F80000
:100E58000A128A15AB240A128A11B530F6008030BE
:100E6800F700D030F8000A128A15AB240A128A114A
:100E7800013083120313BC00EE2D57080A128A11A1
:100E8800A7270A128A11831203134908BD000930E3
:100E98003D06031D502F512FEE2D0A128A15E72308
:100EA8000A128A11023083120313D800BC01BD0153
:100EB800EE2D57080A128A157E240A128A11831207
:100EC80003134908BD0011303D06031D6C2F6D2F1B
:100ED800EE2D512F57080A128A1195230A128A11EA
:100EE800831203134908BD0012303D06031D7D2FF0
:100EF8007E2FEE2D512F57080A128A15A0260A12A6
:100F08008A11831203134308BD0010303D06031DE8
:100F18008E2F8F2FEE2D512F5808013A03197B2E53
:100F2800033A03190B2F013A0319412F073A031902
:100F38005D2F013A03196E2F033A03197F2FEE2D07
:100F48000A128A110C2883120313CE000730640694
:100F5800031DAF2FB02FD82F0A128A15E7230A12C4
:100F68008A115130F6008030F700C230F8000A12BA
:100F78008A15AB240A128A110D3083120313CD008F
:100F8800AF30CC00B530CB00CB0BC82FCC0BC82F63
:100F9800CD0BC82FCF2F0A128A15E7230A128A1100
:100FA800083083120313E40008306406031DDD2FA4
:100FB800DE2FF92F0330C3004E080A128A112F20A2
:100FC8000A128A11831203134308BD0009303D0633
:100FD800031DEF2FF02FF22F0730E4003D08CB0060
:0E0FE800CC014B08C9004C08CA0008000134B7
:10100000FF1B0A2883137F1883170008840A03191B
:10101000FF0A080008308A000408840A82070034A6
:101020005334453454345F34543449344D344534A6
:1010300020343C344D344D343A34533453343E34FC
:1010400000342A343A3443344C3445344134523435
:101050002034203423343A3445344E345434453427
:101060005234003445344E344A344F3459342034E9
:1010700059344F345534523420344D34453441348E
:101080004C34003434342E345334543441345234D8
:1010900054342F3452344534533455344D3445345C
:1010A00000344D344934433452344F34573441348E
:1010B0005634453420344F34563445344E3400349D
:1010C00050344F3457344534523420343D34203476
:1010D0003934303430345734003433342E344334DC
:1010E0006F346E34763465346334743469346F34F9
:1010F0006E340034543449344D3445345F344C3408
:101100004534463454343A34203400345034523464
:1011100045345F34483445344134543449344E34D2
:10112000473400345334453454345F3454344534F4
:101130004D345034003450344F34573445345234E5
:1011400020344F344E34003435342E34503441344E
:101150005534533445340034543449344D344534D3
:101160005F3455345034003432342E3447347234C2
:1011700069346C346C34003431342E344D34693479
:10118000633472346F34003434342E345334743452
:101190006134723474340034543445344D34503432
:1011A0003A342034003436342E34533454344F34EB
:1011B000503400342034203420342034203400349F
:1011C000543449344D3445343A34003428340034EE
:0411D000293400348A
:1017500064008001840A0406031900340406A92BDE
:10176000831603138801091189100A128A1591251D
:101770000A128A1508008312031312149214FA3005
:101780008316031392008C148312031312110800A2
:101790001E340034B43400340134163401340134BE
:1017A0000134143413340734303430343034831675
:1017B00003130608073886000808F03988008113EB
:1017C0008312031388150815881408140800F20101
:1017D00001300A128A1514250A128A150430F700FE
:1017E0003D30F600F60BF22BF70BF22BF72B08002F
:1017F0007E088A007F0882000A128A15F8230A12DE
:101800008A158000840A04087D0603190034FF0A43
:101810000319FE0AFC2B83120313C200F2017A089B
:101820000A128A1514250A128A15F201F20A831285
:10183000031342080A128A1514250A128A15080091
:1018400083160313871007118312031387100711E0
:101850000A128A15B0230A128A150A128A15D7238A
:101860000A128A150A128A15BB230A128A158B17C7
:101870000B170800831203138C1C3F2C402C542C94
:101880000130B4070318B50A0030B50771303406CB
:10189000023003193506031D4E2C4F2C532CB40176
:1018A000B5010130BB078C1071088A00700E8300EF
:1018B000FE0E7E0E0900F4000A128A15F4250A12A3
:1018C0008A15F5007408031D662C672C692C7508B1
:1018D0007D2C750A03196D2C6E2C752C7B08031951
:1018E000722C732C752CFB01672C750A031D792C47
:1018F0007A2C7C2C0130FB00FF300800831203138C
:10190000CD0013306306031D862C872C892C1330E1
:10191000E30013306306031D8E2C8F2CAA2C043099
:10192000C3004D080A128A112F200A128A15831249
:1019300003134308BD0011303D06031DA02CA12C4C
:10194000A32C1330E3003D08CB00CC014B08C900A9
:101950004C08CA000800F20178080A128A151425FA
:101960000A128A15C92CF201F20A7708FF007608DC
:1019700084000A128A1500200A128A150A128A1592
:1019800014250A128A150130F6070318F70A0030E9
:10199000F707770883120313FF00760884000A1202
:1019A0008A1500200A128A15003A031DD82CD92C5A
:1019B000B32C0800831203133E083F040319E12CE3
:1019C000E22C0F2D0130F900EE2C01300310BE0D7A
:1019D000BF0DFF3E031DE62C0130F907BF1FF12CA0
:1019E000F22CE52C3F084102031DF82C3E08400272
:1019F000031CFB2CFC2C022D3E08C0023F08031CDC
:101A0000C103C10201300310BF0CBE0CFF3E031D19
:101A1000032D0130F902031D0E2D0F2DF22C41086C
:101A2000BF004008BE000800F5007218182D1C2DDC
:101A30008312031309151F2D831203130911F030AC
:101A40007505F30008080F39730488008914A6305F
:101A5000F300F30B292D000083120313891075087E
:101A60000F39F30004300310F30DFF3E031D332D37
:101A700008080F39730488008914A630F300F30BAB
:101A80003F2D00008312031389101B30F4009E3099
:101A9000F300F30B492DF40B492D00000800F6016B
:101AA000F701720873040319562D572D8C2D013040
:101AB000F800632D01300310F20DF30DFF3E031DFE
:101AC0005B2D0130F807F31F662D672D5A2D01306D
:101AD0000310F60DF70DFF3E031D682D7308750208
:101AE000031D742D72087402031C772D782D7F2D31
:101AF0007208F4027308031CF503F5027614013032
:101B00000310F30CF20CFF3E031D802D0130F80290
:101B1000031D8B2D8C2D672D7708F3007608F200BE
:101B20000800C330F700CD30F600F60B952DF70B0B
:101B3000952DF20133300A128A1514250A128A15DE
:101B40001B30F7009E30F600F60BA42DF70BA42DEA
:101B50000000F20133300A128A1514250A128A1580
:101B6000A630F600F60BB22D0000F20133300A1257
:101B70008A1514250A128A15BD2DBE2D0000F2010A
:101B800002300A128A1514250A128A15A630F600A8
:101B9000F60BC82D0000F20128300A128A15142510
:101BA0000A128A15A630F600F60BD42D0000F201B9
:101BB00001300A128A1514250A128A150430F7001A
:101BC0003D30F600F60BE22DF70BE22DE72DF2018A
:101BD0000C300A128A1514250A128A15A630F6004E
:101BE000F60BF02D0000080083120313881108156E
:101BF000881408146430F2000030F300FF30F2075C
:101C00000318F30AFF30F307720A031D0B2E730A41
:101C1000031D0B2E0C2EFE2D831203130618112EFE
:101C2000122E142E01309F2E8618172E182E1A2EC3
:101C300002309F2E06191D2E1E2E202E03309F2EA1
:101C400088150811881408146430F2000030F3007D
:101C5000FF30F2070318F30AFF30F307720A031D7F
:101C6000352E730A031D352E362E282E83120313AC
:101C700006183B2E3C2E3E2E04309F2E8618412EF9
:101C8000422E442E05309F2E0619472E482E4A2EEE
:101C900006309F2E88150815881008146430F2004D
:101CA0000030F300FF30F2070318F30AFF30F307A8
:101CB000720A031D5F2E730A031D5F2E602E522EC3
:101CC000831203130618652E662E682E07309F2E8A
:101CD00086186B2E6C2E6E2E08309F2E0619712ED4
:101CE000722E742E09309F2E88150815881408103E
:101CF0006430F2000030F300FF30F2070318F30AFB
:101D0000FF30F307720A031D892E730A031D892E03
:101D10008A2E7C2E8312031306188F2E902E922E5D
:101D20002A309F2E8618952E962E982E00309F2EA4
:101D300006199B2E9C2E9E2E23309F2EFF300800CE
:101D400083120313C80006304806031DA82EA92ECF
:101D5000AE2E1030C3000030C400FF2F05304806FF
:101D6000031DB32EB42EB82E0130B6000711121188
:101D700004304806031DBD2EBE2EF12E5D0803194A
:101D8000C22EC32EC72E1215BB01DD01F02E360860
:101D9000031DCB2ECC2EEA2E1E30D9070318DA0AEB
:101DA0000030DA0700305A023C3003195902031C94
:101DB000DA2EDB2EE72E3C30D9020030031CDA038A
:101DC000DA020130A0070318A10A0030A107B6010A
:101DD0001215F02E36080319EE2EEF2EF02EE72EF8
:101DE00007153608031DF52EF62EFF2F02303B0691
:101DF000031DFB2EFC2E592F0715BB0159085A0451
:101E00000319032F042F0B2F0130D9020030031CBC
:101E1000DA03DA021B2F200821040319102F112FD7
:101E20001B2F3B30D9000030DA000130A002003017
:101E3000031CA103A10220082104031D202F212F30
:101E4000592F59085A04031D262F272F592F0A12DC
:101E50008A15E7230A128A159D30F6008030F700B4
:101E6000C430F8000A128A15AB240A128A152330EE
:101E7000F6008030F7009130F8000A128A15AB2482
:101E80000A128A1583120313071187147F308312F5
:101E90000313C700D430C6003130C500C50B4E2F28
:101EA000C60B4E2FC70B4E2F831203131211871030
:101EB000A92ED130F6008030F7008030F8000A12E9
:101EC0008A15AB240A128A158630FA000A30F2000D
:101ED0000030F300831203132108F5002008F400FA
:101EE0000A128A154F250A128A157208303E0A1204
:101EF0008A150B240A128A158730FA000A308312D9
:101F00000313BE000030BF002108C1002008C0003C
:101F10000A128A15DA240A128A15831203133E085C
:101F2000303E0A128A150B240A128A158830FA00EC
:101F30003A300A128A150B240A128A158930FA00DF
:101F40000A30F2000030F300831203135A08F50040
:101F50005908F4000A128A154F250A128A157208C8
:101F6000303E0A128A150B240A128A158A30FA00AA
:101F70000A3083120313BE000030BF005A08C100AC
:101F80005908C0000A128A15DA240A128A15831227
:101F900003133E08303E0A128A150B240A128A15D2
:101FA0003330F6008030F700C030F8000A128A158E
:101FB000AB240A128A159530F6008030F700903075
:101FC000F8000A128A15AB240A128A15C430F600EA
:101FD0008030F700D030F8000A128A15AB240A12BC
:101FE0008A15033083120313C7008A30C6005530A8
:101FF000C500C50BF92FC60BF92FC70BF92F080029
:08400000FF3FFF3FFF3FFF3FC0
:02400E00FB3F76
:00000001FF
